S01700004156524669726D77617265546573742E7372656347
S113000055C1000073C1000071C100006FC1000040
S11300106DC100006BC1000069C1000067C1000030
S113002065C1000063C1000061C100005FC1000040
S11300305DC100005BC1000059C1000057C1000050
S113004055C100006BC3000051C100004FC1000046
S11300504DC1000088C3000049C1000047C1000031
S113006045C1000043C1000041C100003FC1000080
S11300703DC100003BC1000039C1000037C1000090
S113008035C1000033C1000031C100002FC10000A0
S11300900EC300001FC3000029C1000027C10000D7
S11300A025C1000023C1000021C100001FC10000C0
S11300B01DC100001BC1000019C1000017C10000D0
S11300C015C1000013C1000011C100000FC10000E0
S11300D00DC100000BC1000009C1000007C10000F0
S11300E005C10000000000000000005F00000000E7
S11300F0070007147F147F14242A7F2A122313086D
S1130100646236495522500000050300001C224158
S1130110000041221C0014083E081408083E080888
S113012000000050300808080808000030300020A3
S1130130100804023E5149453E00427F400040669B
S113014051494622414949361814127F1027454522
S113015045393C4A49493101710905033649494940
S113016036264949493E0000333300000000563624
S113017000081422000014141400002214080002C1
S113018001510906324949513E7E0909097E7F49D8
S11301904949363E414141227F4141221C7F494920
S11301A049417F090909013E4149493A7F08080844
S11301B07F41417F41412040413F017F181422414A
S11301C07F404040407F020C027F7F0204187F3E44
S11301D04141413E7F090909063E415121DE7F1913
S11301E0294946464949493101017F01013F4040BF
S11301F0403F1F3040301F3F4038403F63140814D5
S11302006303047804036151494543007F4141007D
S113021002040810200041417F0010080408100067
S113022040404040000305000020545454787F4867
S11302304444383844444420384444487F3854546F
S11302405418087E09010218A4A4A47C7F0804049D
S11302507800447D4000004080847D007F10284465
S113026000417F40007C041804787C08040478383A
S113027044444438FC1824241818242418FC7C080A
S11302800404084854545420043F4440203C404053
S1130290207C1C2040201C3C4030403C442810283A
S11302A0441CA0A0A07C4464544C440011241FBEF0
S11302B0CFEFD1E2DEBFCDBF00E00CBF12E0A0E083
S11302C0B2E0E4E1F8E100E00BBF02C007900D9258
S11302D0A834B107D9F722E0A8E4B2E001C01D9226
S11302E0A836B207E1F718D30C94080C89CE8EBD5A
S11302F00000000000000DB407FEFDCF0000000068
S113030000008EB508950F931F93CF93DF93C09190
S11303106202D0916302988121E030E0890100906B
S1130320610202C0000F111F0A94E2F7402F4095AA
S1130330942398830000000098810090600202C01A
S1130340220F331F0A94E2F7292B288300000000B0
S1130350CEDF8881082B088300000000DF91CF9155
S11303601F910F9108950F931F93CF93DF93C09123
S11303706202D0916302988121E030E0890100900B
S1130380610202C0000F111F0A94E2F7402F40954A
S1130390942398830000000098810090600202C0BA
S11303A0220F331F0A94E2F72095292328830000A3
S11303B000009DDF8881082B088300000000DF9186
S11303C0CF911F910F910895FF920F931F93CF9395
S11303D0DF93EC01162F80E2C6DF80E8C4DF812FB3
S11303E08064C1DF85E0F82E88818823B9F000E0BD
S11303F010E0888190E08097F89EF001F99EF00D5E
S11304001124E00FF11FEC51FF4F84917CDF0F5F4B
S11304101F4F0530110569F72196E6CFDF91CF9183
S11304201F910F91FF900895FF920F931F93CF9305
S1130430DF93F62E072F142FA19859DFCF2DD02F3D
S1130440CE01810F911D8C01C017D10719F089913C
S11304504EDFFACFA19ADF91CF911F910F91FF90B8
S11304600895A19844DF8FEF42DFA19A0895CF93B6
S1130470C62FA19880623BDF8C2F39DFA19ACF91E0
S113048008952FB7F89460915202709153028091AD
S11304905402909155022FBF0895CF93DF93C091DA
S11304A0000260915A0270915B0280915C0290910B
S11304B05D02DEEFDC0F4AE0C49F90011124032E9D
S11304C0000C440B550B8ED6211102C0CD2FE9CF61
S11304D0C695C093000288E78C1B80935102DF917C
S11304E0CF9108954F925F926F927F928F929F92D5
S11304F0AF92BF92CF92DF92EF92FF92CF93DF93AE
S113050000D01F92CDB7DEB7BCDF6B017C018091B8
S1130510090184FF0FC0B5DFDC01CB018C199D09F3
S1130520AE09BF098D329140A105B10580F380E089
S113053090E0AAC080910B01846080930B0185E355
S11305408A95F1F7000080910B018B7F80930B015A
S1130550000097DF6B017C018091090184FD0DC0CF
S113056090DFDC01CB018C199D09AE09BF098D32E6
S11305709140A105B10580F3DACFC12CD12C7601CD
S11305808091090184FF0FC08FEFC81AD80AE80AC6
S1130590F80A91E3C91695E7D906E104F10481F755
S11305A0C12CD12C76010000409005025090060227
S11305B0609007027090080220E030E0A901C301B6
S11305C0B20122D49B01AC01C301B20181D44B011D
S11305D05C016093090270930A0280930B0290936A
S11305E00C028091010290910202A0910302B09149
S11305F0040289839A83AB83BC83AFE0B0E0A70194
S1130600960112D66D5E7F4F8F4F9F4FFAD421E231
S113061033E94CE85AE383D5C8D4072E000C880B81
S1130620990BF1D429813A814B815C81ECD3A501EA
S1130630940175D529813A814B815C81E5D36B01A5
S11306407C016093010270930202809303029093F1
S11306500402A501940160E070E080E89FE3D3D335
S1130660A30192015CD520E030E040E251E4CCD318
S11306706093050270930602809307029093080228
S1130680C701B6018DD4CB010F900F900F900F903E
S1130690DF91CF91FF90EF90DF90CF90BF90AF901C
S11306A09F908F907F906F905F904F9008951F92CE
S11306B00F920FB60F9211248F9381E080936702FB
S11306C08091CE00809366028F910F900FBE0F90A1
S11306D01F9018951F920F920FB60F9211248F93AB
S11306E09F93809165028F5F809365021092CE0084
S11306F09091640280916502981309C0109264027B
S1130700109265028091C9008F7D8093C9009F91EA
S11307108F910F900FBE0F901F9018951F920F92FC
S11307200FB60F9211248F939F93AF93BF93809131
S1130730520290915302A0915402B0915502019635
S1130740A11DB11D8093520290935302A0935402B1
S1130750B0935502BF91AF919F918F910F900FBEAF
S11307600F901F9018951F920F920FB60F9211249D
S11307700BB60F92CF92DF92EF92FF920F931F93DB
S11307802F933F934F935F936F937F938F939F9395
S1130790AF93BF93EF93FF9392B184E0982792B9FC
S11307A098B1892788B980914D0290914E02A09109
S11307B04F02B09150020196A11DB11D80934D02CC
S11307C090934E02A0934F02B093500280915F0227
S11307D0813019F120F0823009F449C084C060915D
S11307E04D0270914E0280914F02909150022AE086
S11307F030E040E050E0F6D420915102672B682BA2
S1130800692B31F497B5291718F487B5815045C081
S113081097B5921368C081E027C040915A02509165
S11308205B0260915C0270915D0280910002009114
S11308304D0210914E0220914F0230915002EAE095
S11308408E9FC0011124092E000CAA0BBB0B6A0158
S11308507B01C81AD90AEA0AFB0A0C151D052E05E4
S11308603F0508F440C082E080935F023CC0609181
S11308704D0270914E0280914F02909150022AE0F5
S113088030E040E050E0AED4672B682B692B39F49C
S113089087B5883720F487B58F5F87BD24C087B5B7
S11308A0883709F580916E008D7F80936E001498CF
S11308B0449810924D0210924E0210924F021092E0
S11308C0500210925A0210925B0210925C02109233
S11308D05D021092510288EA8093000210925F0236
S11308E081E080935E02FF91EF91BF91AF919F9160
S11308F08F917F916F915F914F913F912F911F91B4
S11309000F91FF90EF90DF90CF900F900BBE0F9060
S11309100FBE0F901F901895CF93DF93CDB7DEB71E
S113092068970FB6F894DEBF0FBECDBF8CB58C7F31
S11309308CBD84B1876084B98CB580658CBD289AE0
S113094085E08093600287E08093560286E080937E
S113095061028BE091E09093630280936202809144
S11309600A01806E80930A0180910B018064809358
S11309700B010000000080910B018F7780930B0125
S11309808FE19EE40197F1F700C00000E09162025C
S1130990F0916302208181E090E00090560202C051
S11309A0880F991F0A94E2F7822B8083EFE3FCE916
S11309B03197F1F700C0000083E2D5DC85E0D3DC99
S11309C083E1D1DC8CEBCFDC82E2CDDC8CE0CBDCD0
S11309D081E2C9DC81ECC7DC80E2C5DC80E8C3DCF1
S11309E080E4C1DC08EF11E080E08DDC01501109E6
S11309F0D9F781B1856181B987B1856187B987B13B
S1130A00876087B981B1866081B981B1876081B916
S1130A1087B1866087B982E084BD84E085BD88E7BC
S1130A2087BD809181008B608093810080916F00ED
S1130A30826080936F0089EF90E0909389008093A7
S1130A408800999A989AA098A19A8DE092E0909340
S1130A5059028093580281E08093570268E080E055
S1130A6006DD6FE381E003DD63E082E000DD63E047
S1130A7083E0FDDC63E084E0FADC62E085E0F7DC3F
S1130A806EE086E0F4DC35E0532E8E010F5F1F4FDD
S1130A90F801252D11922A95E9F747EED42ED98233
S1130AA0DA82DB82DC82DD8245E0B8018AE2BCDCEA
S1130AB082EC89831A821B821C821D8245E0B80164
S1130AC08BE2B2DC63EC8CE0D2DC64EC8DE0CFDC56
S1130AD065EC8EE0CCDC66EC8FE0C9DCD982DA828E
S1130AE0DB82DC82DD8245E0B80180E39DDC60E0EE
S1130AF081E1BDDC60E082E1BADC60E083E1B7DC87
S1130B0060E084E1B4DC60E085E1B1DC60E086E1D2
S1130B10AEDC60E08CE1ABDC60E08DE1A8DC1D8A3A
S1130B206E0185E1C80ED11C41E0B60181EE7CDC8A
S1130B301D8A41E0B60182EE77DC60E081E097DC5B
S1130B4060E082E094DC80E08CDC682F606780E009
S1130B508EDC6FE384E08BDC60910E0285E087DC41
S1130B6040900D0286E07DDC41FA882480F8912CC7
S1130B7055E0880C991C5A95E1F740FAEE24E0F808
S1130B80F12C63E0EE0CFF1C6A95E1F7E828867906
S1130B906E2D682B86E06BDCF0900F0286E061DC42
S1130BA0F1FAAA24A0F8B12CAA0CBB1CAA0CBB1CF9
S1130BB0F0FA662460F8712C660C771C6A28867932
S1130BC0662D682B86E053DC81E090E07C01009088
S1130BD0100202C0EE0CFF1C0A94E2F76E2D47DCF3
S1130BE06E2D82E044DC61E083E041DCF09012028F
S1130BF03091130220911402909110028AE0890F1F
S1130C00923080F4F80111925A94E9F7F9823A8308
S1130C102B8343E0B801806207DC43E0B80180E342
S1130C2003DC05C06F2D23DC6F2D80E120DCF09008
S1130C30100264E08DE11BDC61E070E001C0660F2E
S1130C40FA94EAF78CE113DC80E00BDC682F626035
S1130C5080E00DDC60E787E00ADC80910A018460B3
S1130C6080930A0180910A018F7E80930A0178940F
S1130C702090160230901702CE0103969F8B8E8B24
S1130C8093E8892E91E9992EA12CB12C2EE6422EBF
S1130C902BE2522E612C712C80915702882349F04B
S1130CA01092570280E0DDDB682F616080E0DFDBBB
S1130CB0A09A87E0D6DB86FFEFCFE0915802F0914F
S1130CC0590283818066CDDB888FA19881E60FDB92
S1130CD076018E2D8C19F88D8F1730F48FEF07DB8A
S1130CE0F70181937F01F5CFA19A198241E0B80100
S1130CF082EE9ADB198241E0B80181EE95DB60E770
S1130D0087E0B5DB3A822982EE89FF8922E11192DC
S1130D102A95E9F780E227DB80E825DB80E423DB02
S1130D2080E5F82E80E0EFDAFA94F110FBCFFD882D
S1130D301F92FF928AE292E09F938F931F930F93E7
S1130D408CD260E0C80140DBCDDB99279F938F9361
S1130D508BE392E09F938F931F930F937ED261E076
S1130D60C80132DB0FB6F894DEBF0FBECDBF93E0EF
S1130D70F91641F19F1568F0E1E0FE16A1F0F2E0EA
S1130D80FF128ACF10925E02149A449A1098409AE5
S1130D9010C024E0F216E9F085E0F8127DCF92E06D
S1130DA090935F022BC010925E02149A449A109A98
S1130DB0409840925A0250925B0260925C02709298
S1130DC05D0215C010925E02149A449A109A409AD9
S1130DD006C010925E02149A449A10984098809229
S1130DE05A0290925B02A0925C02B0925D0255DBC3
S1130DF080916E00826080936E004ECF80915E027F
S1130E008130E1F749CF5058BB27AA270ED04DC1F6
S1130E103ED130F043D120F031F49F3F11F41EF461
S1130E2033C10EF4E095E7FB29C1E92F4FD180F3DC
S1130E30BA17620773078407950718F071F49EF5D3
S1130E4067C10EF4E0950B2EBA2FA02D0B01B9014A
S1130E5090010C01CA01A0011124FF27591B99F02C
S1130E60593F50F4503E68F11A16F040A22F232F38
S1130E70342F4427585FF3CF469537952795A79588
S1130E80F0405395C9F77EF41F16BA0B620B730B2F
S1130E90840BBAF09150A1F0FF0FBB1F661F771FA0
S1130EA0881FC2F70EC0BA0F621F731F841F48F455
S1130EB0879577956795B795F7959E3F08F0B3CFDB
S1130EC09395880F08F09927EE0F979587950895C5
S1130ED00CD0EBC0E3D040F0DAD030F021F45F3F27
S1130EE019F0CCC0511115C1CFC0F0D098F399239B
S1130EF0C9F35523B1F3951B550BBB27AA276217DA
S1130F007307840738F09F5F5F4F220F331F441F1E
S1130F10AA1FA9F333D00E2E3AF0E0E830D0915056
S1130F205040E695001CCAF729D0FE2F27D0660F43
S1130F30771F881FBB1F261737074807AB07B0E882
S1130F4009F0BB0B802DBF01FF2793585F4F2AF098
S1130F509E3F510568F092C0DCC05F3FECF3983EC1
S1130F60DCF3869577956795B795F7959F5FC9F7F5
S1130F70880F911D9695879597F90895E1E0660F7E
S1130F80771F881FBB1F621773078407BA0720F0F7
S1130F90621B730B840BBA0BEE1F88F7E095089560
S1130FA004D06894B111B5C0089598D088F09F57C3
S1130FB090F0B92F9927B751A0F0D1F0660F771FA1
S1130FC0881F991F1AF0BA95C9F712C0B13081F081
S1130FD09FD0B1E008959CC0672F782F8827B85F11
S1130FE039F0B93FCCF3869577956795B395D9F7E2
S1130FF03EF490958095709561957F4F8F4F9F4FEC
S11310000895E89409C097FB3EF4909580957095F7
S113101061957F4F8F4F9F4F9923A9F0F92F96E940
S1131020BB279395F695879577956795B795F111B5
S1131030F8CFFAF4BB0F11F460FF1BC06F5F7F4F52
S11310408F4F9F4F16C0882311F096E911C0772364
S113105021F09EE8872F762F05C0662371F096E86D
S1131060862F70E060E02AF09A95660F771F881F3C
S1131070DAF7880F9695879597F9089597F99F67FA
S113108080E870E060E008959FEF80EC089500240C
S11310900A941616170618060906089500240A94D9
S11310A012161306140605060895092E0394000C5F
S11310B011F4882352F0BB0F40F4BF2B11F460FFEE
S11310C004C06F5F7F4F8F4F9F4F089557FD905817
S11310D0440F551F59F05F3F71F04795880F97FBF8
S11310E0991F61F09F3F79F08795089512161306B2
S11310F01406551FF2CF4695F1DF08C016161706E1
S11311001806991FF1CF8695710561050894089515
S1131110E894BB2766277727CB0197F908950BD06E
S1131120C4CFB5DF28F0BADF18F0952309F0A6CFB5
S1131130ABCF1124EECFCADFA0F3959FD1F3950F67
S113114050E0551F629FF001729FBB27F00DB11D47
S1131150639FAA27F00DB11DAA1F649F6627B00DD7
S1131160A11D661F829F2227B00DA11D621F739FC0
S1131170B00DA11D621F839FA00D611D221F749FCE
S11311803327A00D611D231F849F600D211D822F15
S1131190762F6A2F11249F5750408AF0E1F088235C
S11311A04AF0EE0FFF1FBB1F661F771F881F915069
S11311B05040A9F79E3F510570F060CFAACF5F3F22
S11311C0ECF3983EDCF3869577956795B795F7959C
S11311D0E7959F5FC1F7FE2B880F911D9695879524
S11311E097F90895A1E21A2EAA1BBB1BFD010DC09D
S11311F0AA1FBB1FEE1FFF1FA217B307E407F507C3
S113120020F0A21BB30BE40BF50B661F771F881F9E
S1131210991F1A9469F760957095809590959B0134
S1131220AC01BD01CF01089509D0A59F900DB49FD5
S1131230900DA49F800D911D11240895A29FB001CB
S1131240B39FC001A39F700D811D1124911DB29FF6
S1131250700D811D1124911D08950F931F93CF9339
S1131260DF93CDB7DEB72E970FB6F894DEBF0FBE6F
S1131270CDBF0E891F8986E08C831A8309838FEF83
S11312809FE79E838D83AE01465E5F4F688D798DA7
S1131290CE01019610D0EF81F885E00FF11F108286
S11312A02E960FB6F894DEBF0FBECDBFDF91CF915F
S11312B01F910F9108952F923F924F925F926F92D8
S11312C07F928F929F92AF92BF92CF92DF92EF92D2
S11312D0FF920F931F93CF93DF93CDB7DEB72B9776
S11312E00FB6F894DEBF0FBECDBF6C017B018A013F
S11312F0FC0117821682838181FFBFC1CE01019652
S11313003C01F6019381F70193FD859193FF81914F
S11313107F01882309F4ADC1853239F493FD8591A9
S113132093FF81917F01853221F4B60190E0D6D1FB
S1131330E8CF912C212C312CFFE1F315D8F08B321E
S113134079F038F4803279F08332A1F4232D2061CE
S11313501DC08D3261F0803369F4232D216016C0E5
S1131360832D8260382EE32DE4603E2E2AC0F32DB7
S1131370F8601DC037FC2DC020ED280F2A3040F046
S11313808E32B9F436FC75C1232D2064322E19C077
S113139036FE06C08AE0989E200D1124922E11C0BC
S11313A0EAE02E9E200D1124222EF32DF0623F2E12
S11313B008C08C3621F4832D8068382E02C088360C
S11313C041F4F70193FD859193FF81917F01811190
S11313D0B3CF982F9F7D9554933028F40C5F1F4F03
S11313E09FE399830DC0833631F0833771F08335E1
S11313F009F055C020C0F801808189830E5F1F4F1A
S113140088248394912C530112C02801F2E04F0EDA
S1131410511CF801A080B18036FE03C0692D70E034
S113142002C06FEF7FEFC5014ED14C018201F32D55
S1131430FF773F2E15C0280122E0420E511CF8010F
S1131440A080B18036FE03C0692D70E002C06FEF4A
S11314507FEFC5012DD14C01F32DF0683F2E8201A1
S113146033FC19C0822D90E088169906A0F4B601C9
S113147080E290E033D12A94F5CFF50137FC8591D1
S113148037FE81915F01B60190E028D121102A94A2
S113149021E0821A91088114910479F7E1C084361D
S11314A011F0893639F5F80137FE07C06081718182
S11314B0828193810C5F1F4F08C060817181072E68
S11314C0000C880B990B0E5F1F4FF32DFF763F2EF8
S11314D097FF09C090958095709561957F4F8F4FC8
S11314E09F4FF0683F2E2AE030E0A30133D1882ECD
S11314F0861844C0853731F4232D2F7EB22E2AE07E
S113150030E025C0932D997FB92E8F36C1F018F4A1
S1131510883579F0AEC0803719F0883721F0A9C03A
S1131520E92FE061BE2EB4FE0DC0FB2DF460BF2E8A
S113153009C034FE0AC0292F2660B22E06C028E056
S113154030E005C020E130E002C020E132E0F801E3
S1131550B7FE07C060817181828193810C5F1F4F48
S113156006C06081718180E090E00E5F1F4FA3018F
S1131570F1D0882E8618FB2DFF773F2E36FE0DC046
S1131580232D2E7FA22E891458F434FE0BC032FC76
S113159009C0832D8E7EA82E05C0B82CA32C03C0B1
S11315A0B82C01C0B92CA4FE0FC0FE01E80DF11D3A
S11315B08081803321F49A2D997EA92E09C0A2FE40
S11315C006C0B394B39404C08A2D867809F0B3940A
S11315D0A3FC10C0A0FE06C0B21480F4280C922C08
S11315E09B180DC0B21458F4B60180E290E076D096
S11315F0B394F8CFB21418F42B1802C0982C212CF1
S1131600A4FE0FC0B60180E390E068D0A2FE16C02D
S1131610A1FC03C088E790E002C088E590E0B60131
S11316200CC08A2D867851F0A1FE02C08BE201C065
S113163080E2A7FC8DE2B60190E050D0891430F42A
S1131640B60180E390E04AD09A94F8CF8A94F301EB
S1131650E80DF11D8081B60190E040D08110F6CFF5
S1131660222009F44ECEB60180E290E037D02A94CD
S1131670F7CFF6018681978102C08FEF9FEF2B96FB
S11316800FB6F894DEBF0FBECDBFDF91CF911F918F
S11316900F91FF90EF90DF90CF90BF90AF909F900D
S11316A08F907F906F905F904F903F902F90089510
S11316B0FC010590615070400110D8F78095909519
S11316C08E0F9F1F0895FC0161507040019001101E
S11316D0D8F7809590958E0F9F1F08950F931F93B1
S11316E0CF93DF93FB01238121FD03C08FEF9FEF95
S11316F02CC022FF16C046815781248135814217B0
S1131700530744F4A081B1819D012F5F3F4F318382
S113171020838C93268137812F5F3F4F3783268325
S113172014C08B01EC01FB010084F185E02D1995B7
S1131730892BE1F6D80116968D919C911797019605
S113174017969C938E931697CE01DF91CF911F919C
S11317500F910895FA01AA27283051F1203181F11F
S1131760E8946F936E7F6E5F7F4F8F4F9F4FAF4FA5
S1131770B1E03ED0B4E03CD0670F781F891F9A1FB8
S1131780A11D680F791F8A1F911DA11D6A0F711D6C
S1131790811D911DA11D20D009F468943F912AE078
S11317A0269F11243019305D3193DEF6CF01089560
S11317B0462F4770405D4193B3E00FD0C9F7F6CF91
S11317C0462F4F70405D4A3318F0495D31FD405259
S11317D0419302D0A9F7EACFB4E0A69597958795EF
S11317E077956795BA95C9F70097610571050895CE
S11317F09B01AC010A2E069457954795379527957A
S1131800BA95C9F7620F731F841F951FA01D089511
S1071810F894FFCF76
S1131814A80000803F0000803F0000803F006C006F
S11318240001610C00000000000000000000000042
S11318340000000000000000000052656365697642
S1131844656420446174613A257500446973746164
S10B18546E63653A257500007E
S9030000FC
